:020000040000FA
:1000000080620020DD6E00005F8F0000C96E00007E
:10001000C96E0000C96E0000C96E0000000000003B
:100020000000000000000000000000009D6F0000C4
:10003000C96E000000000000316F0000C96E0000B2
:10004000091B0000091B0000091B0000091B000020
:10005000091B0000091B0000091B0000091B000010
:10006000091B0000091B0000091B0000091B000000
:10007000091B0000091B0000091B0000091B0000F0
:10008000091B0000091B0000091B0000091B0000E0
:10009000091B0000091B0000091B0000091B0000D0
:1000A000091B0000091B0000091B0000091B0000C0
:1000B000091B0000091B0000091B0000091B0000B0
:1000C000091B0000091B0000091B0000091B0000A0
:1000D000091B0000091B0000091B0000091B000090
:1000E000091B0000091B0000091B0000091B000080
:1000F000091B0000091B0000091B0000091B000070
:10010000F0B40C4B0C4E5F6A0C4BB34203D36FF050
:100110008500F0BC70475D68BD4209D31C693CB1E5
:1001200095F802C00579AC4502D12346F0BC1847CA
:100130002433EAE7B0270020BD010020BD010020E4
:100140002DE9F047134CDFF85080DFF8509005465A
:100150000E461746444503D36FF08500BDE8F0878F
:100160006268D9F824309A4212D3A36983B1907897
:100170002979884205D13A4631462846BDE8F047FC
:1001800018475279012A03D13A4631462846984702
:100190002434DFE7BD010020BD010020B02700208E
:1001A0002DE9F0410B4CDFF8308005460E4617462E
:1001B000444502D36FF0850009E063690BB924342C
:1001C000F6E73A463146284698470028F7D1BDE879
:1001D000F08100BFBD010020BD01002070B50B4BB8
:1001E0000B4CA34201D3002070BD196A1E7F002270
:1001F0000439D5B2AE4201D82433F2E7013211F806
:1002000032508542F5D10120EEE700BFBD0100204C
:10021000BD01002030B52E4B0546986A9C6A10F04F
:10022000100F14BF1120102014F0080F9C6A18BF83
:100230001220A4070AD55C6B986A000644D519B150
:10024000996A21F080019962132001E06FF0150492
:100250001F4B996A11F0010F996A18BF142011F011
:10026000200F996A18BF1520C90602D49B6A990706
:100270001BD5174B5B681B0517D5164B9B68A3B1A5
:10028000D3F8B410DB6D11F0080F0CBF40218021B2
:1002900014F1160F04D0591A8C4206D39C4204D292
:1002A0009D4202D283F309880220094B996A89068C
:1002B00042BF596A21F400515962996A41F0FF0125
:1002C00099620023137030BD6FF01504BCE700BFC6
:1002D00000ED00E07C2800200749D1F890200023A1
:1002E000C2F307221846934200DB7047C1F89830EA
:1002F000C1F8A0000133F6E700ED00E0002807DBBD
:10030000044A4109012300F01F00834042F82130D4
:10031000704700BF00E100E000280CDB43090649FC
:1003200000F01F0020330122824041F82320BFF358
:100330004F8FBFF36F8F704700E100E00028ACBF24
:1003400000F16040064B4FEA4111ACBF00F561403F
:1003500000F00F00C9B2B4BF195480F80013704701
:1003600014ED00E002480822002108F073BA00BF33
:100370006B2800204FF08053D3F83021082A06D193
:10038000D3F83431052B02D8024AD05C70470020E4
:10039000704700BF629A00004FF08053D3F83021BD
:1003A000082A06D1D3F83431052B04D8034AD05C8F
:1003B0007047002070470120704700BF599A000025
:1003C00008B508F05FFA18B1024B0022C3F81C2CE4
:1003D00008BD00BF00700240EFF31180202383F3BB
:1003E0001288BFF36F8F0A4BD3F8001C032261B948
:1003F00049F27531C3F8001CC3F8142DC3F8001C72
:1004000080F31188BFF36F8F7047C3F8142DF7E79F
:1004100000E00640EFF31180202383F31288BFF33E
:100420006F8F0A4BD3F8001C61B949F27532C3F8DB
:10043000002CC3F8141DC3F8002C80F31188BFF3FF
:100440006F8F70470022C3F8142DF6E700E00640D6
:10045000030713D400F00F0310F0800F084A0BBFFE
:1004600003F5887303F5847302EB830252F82300CB
:1004700008BF5068003818BF01207047002070473F
:1004800000700240084B70B5C31A0D4607499B1017
:10049000044659430648402208F006FA2B46014616
:1004A0002046BDE870401847FC220020B76DDBB63F
:1004B0007C95000073B50C4C0C4A4023041B009340
:1004C0000D460B460A49A41061430646094808F048
:1004D00017FA011E05DA30462B4602B0BDE870401F
:1004E000184702B070BD00BFFC2200206B890000DD
:1004F000B76DDBB67C95000000F1744000F5A600F6
:100500000A289ABF024B33F910006FF00F007047B2
:1005100050990000024B0B6001231360704700BF2D
:10052000AC97000000487047A4970000024B0B6096
:1005300001231360704700BF781700200048704700
:100540009C970000074B0122C3E90033C3E9022254
:100550004FF08052044B5169196012695A600020B3
:10056000704700BF801700207817002008B508F0FA
:1005700089F900B34FF08042D2F81015CB071AD595
:10058000D2F8103501F01E0123F01F030B43C2F80F
:100590001035D2F808315BB1D2F8103523F01F03C3
:1005A0000B4343F00103C2F810356FF08B0008BD18
:1005B000024B01221A700020F9E700BF812E0020B3
:1005C0004FF08042D2F81015D2F8103501F01E011C
:1005D00023F01F030B4343F00103C2F81035024B15
:1005E00000221A70704700BF812E0020036803F0BC
:1005F0001F025B09026004D0012B034818BF0020D2
:1006000070474FF0A0407047000300500D4B186832
:10061000010A0006BFF35F8F0B4BD3F8043518189F
:1006200041F10001B3F5801F0AD2084BD3E9002342
:10063000904271EB030303D210F1807041F100018D
:10064000704700BF7417002000100140E001002037
:100650004FF08053D3F83021082A06D1D3F8343133
:10066000052B02D8024AD05C70470020704700BFBB
:100670004B9A0000024AD2F80034002BFBD070479E
:1006800000E00140034B186810F0010001D1FFF7B2
:1006900035BE704700E100E0F8B5022105460020B4
:1006A000FFF74CFE134B1C79ECB9134A1A60012674
:1006B0009E80FFF7E7FF4FF08043C3F818452B6992
:1006C000A3B11C222146184608F0C4F80B4F07615D
:1006D00006642D691C222146A81808F0BBF8EF62B9
:1006E000EE642046F8BD6FF00400FBE76FF01500E4
:1006F000F8E700BFCC1700207D100000B497000081
:1007000001282DE9F3414FF08043054624D0022211
:10071000C3F8082300240122DA60C3F80441D3F8A7
:10072000043101238DF80730204B42F210774FF04F
:10073000804643F00108012D25D0D6F8183403F483
:100740008033A4B92BB14020C047013FF3D1012D24
:1007500020D002B0BDE8F0810022C3F80803586041
:10076000C3F80021D3F800310DF10704D9E7D6F81A
:10077000182402F003022260002BEAD09DF8073013
:10078000012BE0D0E3E7D6F80C3403F480332CB926
:10079000002BD8D1064B00225A71DAE7D6F80C2488
:1007A00002F001022270002BE8D1F3E7F09500007F
:1007B000CC17002010B5EFF31184202383F31288A7
:1007C000BFF36F8F074A136823F00201DB07116044
:1007D00002D40120FFF794FF84F31188BFF36F8FD9
:1007E00010BD00BFD4170020012838B5264C40D0DA
:1007F0004FF08043D3F81814D3F81824C80320D539
:1008000002F00303012B04D013B10020FFF778FF9F
:1008100000234FF080420220C2F8183508224FF41E
:10082000827303F180430021196002F180421D6848
:1008300001251560226802B34FF08043C3F804031A
:100840000CE0D3F81424D107E2D5D3F81C24920786
:10085000DBD422681AB10222C3F8042338BDD3F8CE
:100860000421002AFBD00022C3F80421D3F804316C
:10087000F4E700224FF48073D3E71A68002AFCD013
:1008800019601B68EAE700BFCC170020F8B5114DCE
:100890006C6BB4B14FF47A735C430A23B4FBF3F48A
:1008A0000D4E0E4F46F00106D7F8003163B995F8AA
:1008B00039304BB94FF42070B047013CF4D10848AF
:1008C000F8BD4CF25034EBE795F83930002BF6D1F7
:1008D0000448F5E790170020F095000000900240D2
:1008E0000700AD0B0000AD0B0A4B10B50022012430
:1008F000C3F80045C3F800211C6008B9064810BDC4
:10090000FFF7C4FF044B9842F9D1044B83F83840F9
:10091000F4E700BF009002400000AD0B90170020EC
:1009200070B500F06044B4F1005F5DD184075BD125
:100930002F4C94F83050012D05D09D4256D194F89B
:100940003850002D52D02B4D022B0BBFC5F810256F
:10095000C5F80425C5F81405C5F808050CBFC5F889
:100960001815C5F80C154FF0000684F83960266894
:100970000CBF08250425BEB994F838306BB11D4B67
:1009800005F1804505F524350022C3F80021012337
:100990002B60BDE87040FFF779BF0120FFF7A4FF8F
:1009A000154B9842EBD170BDA66826B1E06061613D
:1009B000E2611248F7E7A2610E4A84F83030012361
:1009C000A0602161C2F80061C2F8043394F83820B5
:1009D00002F0FF0012B9FFF787FFEAE705F1804553
:1009E00005F524352B60E4E70548DCE70548DAE740
:1009F00090170020009002400700AD0B0000AD0BE7
:100A00000A00AD0B0B00AD0B094A0A4B10B50021D3
:100A1000012483F83810C2F80843146107F032FF4C
:100A200000B15465C2F80015C2F8001110BD00BF36
:100A3000009002409017002038B511F0030539D11D
:100A40001E4B1A6892B91E4CC4F81C15C4F8200538
:100A500083F8392093F838301BB30023C4F80031F1
:100A60000123E360BDE83840FFF710BF93F8304042
:100A7000012C21D1124AC2F81C150421C2F820050C
:100A800083F8395083F83010C2F80051C2F804439B
:100A900093F8383003F0FF0053B9FFF725FF0948FA
:100AA00005E00120FFF720FF074B9842D5D138BD64
:100AB000D460F4E70548FAE70548F8E79017002006
:100AC000009002400000AD0B0700AD0B0A00AD0B1B
:100AD0000B00AD0B104B70B553F82040013053F8AC
:100AE0002060A64200D870BDD4E9003595B153B15D
:100AF0002846984738B10028B8BF4042EB68FF2825
:100B0000A8BFFF201870EA68537843F001035370C0
:100B10000834E6E79847FBE75897000038B5064CDD
:100B2000064D0020AC4200D338BD204607F03FFF01
:100B30000028F9DB1C34F5E7BC000020D8000020B9
:100B40000A4A114651F81C3F8B4200D003B9D368C2
:100B500048B99168487BC00605D1986918B9C88919
:100B60007F2888BF0B469361704700BF7C28002018
:100B700048B1064B5B68984205D003681BB1DA6840
:100B8000C1680A44DA6007F040BF00BF4C00002093
:100B9000084B9A685A621A699A629A69DA62DA6844
:100BA0009A6032B15A691A61DA699A610022DA6090
:100BB000704770479017002010B5224BD3F80021E2
:100BC00092B1214C0022C3F8002194F8381094F817
:100BD000302071B90121032A84F8381005D0042A85
:100BE00005D0022A00D1996010BD5960FCE7D96098
:100BF000FAE7032A19D0042A19D0022A04D10123C2
:100C000084F82030FFF7C4FFA36813B9012384F8E8
:100C1000303094F8393003F0FF0013B9D4E90031D3
:100C20009847002384F82030DEE70223E8E7032218
:100C300084F82020D3F81C256262D3F8203584F88C
:100C40002830E1E7009002409017002010B54FF0E7
:100C50008043D3F80443600706D54FF4847007F04F
:100C6000DCFE08B100239847A10606D54FF48A7030
:100C700007F0D3FE08B100208047620607D54FF485
:100C80008C7007F0CAFE10B101200023984723069C
:100C900008D54FF48E7007F0C0FE18B1254B002028
:100CA0001B689847E00508D54FF4907007F0B5FE33
:100CB00018B1204B01201B689847A10508D54FF4B7
:100CC000927007F0AAFE18B11A4B02201B689847D1
:100CD0004FF08043D3F800216AB10022C3F800210D
:100CE000D3F800210122C3F80823134B587910B917
:100CF0005A711B6898474FF08043D3F8042172B1B2
:100D00000022C3F80421D3F80421D3F81824D3F81F
:100D10001824920704D10122C3F818259A6010BD47
:100D20000222C3F80823044BBDE810401B680120D1
:100D3000184700BFC8190020CC170020F7B5019054
:100D400001A81F461646FFF751FC019B9DF8204065
:100D5000084D00EB83002402D0F800371D4044EA20
:100D60008703194341EA46022A43C0F8002703B02B
:100D7000F0BD00BFF0F8FCFF0268154BFF2A08BF6A
:100D80004FF0FF32C3F824254268FF2A08BF4FF016
:100D9000FF32C3F828258268FF2A08BF4FF0FF32D0
:100DA000C3F83025C268FF2A08BF4FF0FF32C3F8EE
:100DB00034250269FF2A08BF4FF0FF32C3F83825F7
:100DC0004269FF2A08BF4FF0FF32C3F83C25704745
:100DD0000090024030B5194D0FCD8DB06C460FC458
:100DE00095E8030084E803001549D1F82435DBB207
:100DF0000693D1F82835DBB20793D1F83035DBB252
:100E00000893D1F83435DBB20993D1F83835DBB229
:100E10000A93D1F83C356846DBB20B93FFF7ACFF81
:100E20000023C1F8003101230B60D1F80031002B01
:100E3000FBD006A8FFF7A0FF0DB030BDC0950000A5
:100E4000009002402DE9F84F446803460F46002CFD
:100E50004FD0D4E900459A68002A4CD0D2E900620C
:100E6000002A49D0002D47D0AA4240F09480013595
:100E7000092D00F29080DFF838B19BF8300001288E
:100E800040F0878093F800A09BF83830DFF8149189
:100E9000ABB3434B0122C3F808235FFA85F8FFF791
:100EA00099FFACBBFF03002447EA05278BF83940C4
:100EB00047EA0A07DFF8E8B047F44057CBF80041AB
:100EC000CBF83476FFF7E2FC48451CD0CBF8004164
:100ED000002E5CD0A8F10208DBF83C26DBF838369F
:100EE000B8F1070F53D8DFE808F0514F4D4B4A488F
:100EF00046442546AFE7164601351544B8E7FFF7E7
:100F0000F3FC4845C5D12748BDE8F84FFFF7F4BAD0
:100F1000A8F10203072BC5D8DFE803F02927251124
:100F200023211F04E3791B06A27943EA0243627975
:100F300043EA022322791343194AC2F83C36E37884
:100F40001B06A27843EA0243627843EA022322782E
:100F50001343134AC2F83836A4E70023E4E700231A
:100F6000E5E70023E6E70023EBE70023ECE70023B7
:100F7000EDE7110EF171110CB171110A717132713D
:100F80001A0EF2701A0CB2701A0A72703370064898
:100F9000BAE70648B8E76FF01500BDE8F88F00BF64
:100FA000009002400700AD0B0000AD0B0B00AD0B35
:100FB0009017002030B4104B0C2202FB0033014686
:100FC0000020D3E90E529863EFF31180202484F3BC
:100FD0001288BFF36F8F1C6C04F0C00444F002044D
:100FE0001C6480F31188BFF36F8F1DB12B4603483B
:100FF00030BC184730BC7047FC2200207C950000B4
:1010000010B4EFF31182202383F31288BFF36F8FA4
:101010001848016841F002040460C80708D482F34C
:101020001188BFF36F8F01205DF8044BFFF7DCBB25
:101030004FF08041D1F80C04D1F80C14C907EED55B
:10104000EFF3118083F31288BFF36F8F0A490B6CA3
:1010500003F0C00343F002030B6480F31188BFF375
:101060006F8F82F31188BFF36F8F00205DF8044B00
:10107000FFF7A0BFD4170020FC22002010B10128E8
:1010800004D07047034B1B6C5B0701D1FFF792BF85
:10109000704700BFFC22002008B510B34368B3F5C9
:1010A000683F10D101220368BFF35B8F53E8001F34
:1010B000002903D143E800200028F7D1BFF35B8F5C
:1010C0000BD1002008BD084A934208D000684FF0B9
:1010D000FF3105F0B7FD0028F3D00448F2E70448DB
:1010E000F0E76FF4E040EDE72C5F5CA9E98FFFFFCC
:1010F000EA8FFFFF08B5027B12F0020F0346284A71
:1011000003D190F8B510C9062ED4516B41F080413F
:101110005163D3F8B420100709D442F00802C3F891
:10112000B420DA6D4032DA651A6E403A1A661A7BDC
:1011300042F002021A738022DB6D1A489B1AC0E942
:101140000032194B8360194B0022197804F064FFB8
:1011500010F1160F07D0164A0021D2F89030C3F3D1
:101160000723984215DB08BD516B21F08041516384
:10117000D0F8B420110701D44022DDE722F00802A4
:10118000C0F8B420C26D403AC265026E40320266B9
:10119000F2E7C2F89800C2F8A0100130DDE700BF06
:1011A00000EF00E0AC20002000000B15882E00208E
:1011B00000ED00E0020600F07F0312D5082B05D1F8
:1011C000010700F00F0306D50E48704710F0780FA6
:1011D00012D100F00F034C2000EB43100A4B1844CF
:1011E0007047082B05D1020700F00F0306D507480A
:1011F000704710F0780FF6D000207047044800EBDD
:1012000043107047982400204C230020B82500206C
:10121000B824002010B5144B93F824200446E2B102
:1012200093F82530CBB1FFF7C5FF0346C0B1827AF2
:10123000012A15D007D9023A012A08D95A699A61B8
:101240000020D86010BD094A01215165F6E7074A20
:1012500044F48074C2F81845F0E76FF01200F1E72B
:101260006FF01500EEE700BF4C2300200070024035
:10127000044B994205D100694FF0FF31103007F05F
:101280001BBC70470000AD0B1FB500220123CDE948
:101290000223084ACDF800D06B46CDF804D007F001
:1012A0005DFB002803DB4021684607F005FC05B024
:1012B0005DF804FB0793000070B503460C46EFF39E
:1012C0001186202080F31288BFF36F8FDD685DB137
:1012D00025602A68DA609A6901329A61002086F3F3
:1012E0001188BFF36F8F0DE01AB922606FF00B0009
:1012F000F5E71946304605F067FC18B9024B9B68C4
:101300005B69236070BD00BF7C28002010B50446D7
:1013100018B91E4B1E485B6898476368B3F5683F71
:1013200030D0B3F5680F2DD01A4A934217D12368F5
:10133000F3B919484FF0FF322146FFF7BDFF08B956
:1013400023681BB9114B15485B6898472068142225
:10135000002107F07FFA4FF46863636008E0B3F59B
:10136000683F10D83A2B03D040F6BA629342E0D1DE
:1013700023680022C3E90222C3E90033636843F013
:101380003A03636010BD064AF0E700BF5400002036
:10139000849900002C5F5CA9E0220020AA9900003B
:1013A0003A00003A2DE9F7432F4CD4F8043399075B
:1013B0000BD5D4F8043143B12C4A0023C4F80431CE
:1013C000D4F80431136801331360D4F80433DA031A
:1013D00029D5BFF35B8F264B53E8002F22F0010184
:1013E00043E800100028F7D1BFF35B8FD30702D486
:1013F000D4F84031BBB10025C4F84051D4F8403195
:10140000FFF704F9EFF31182202383F31288BFF36F
:101410006F8F184BD3E90267B042B94106D282F30D
:101420001188BFF36F8F03B0BDE8F0834FF0FF3832
:101430004FF0FF39C3E90289D3E900101D604FF472
:101440008033C4F84833C4F84051D4F8403182F3B3
:101450001188BFF36F8F0029E5D0009032463B46DC
:1014600028468847DFE700BF0010014074170020BE
:101470006C170020C001002010B50D480D4C05F080
:10148000E7FD40221423C4E904230B4BA36020464C
:101490000023A36107F08BFA084900280848A8BF79
:1014A000C4E9004405F046FEBDE8104005F086BDE5
:1014B00070970000E022002054120020789700006E
:1014C0008C9700002DE9F04F4FF0010909FA00F95F
:1014D000DFF87CA1BFF35B8F144685B006461D463E
:1014E0006FEA09025AE8003F03EA02014AE80010E5
:1014F0000028F7D1BFF35B8F4E4F4FF4803808FAC6
:1015000006F8C7F80883BFF35F8FBFF36F8F09EA50
:1015100003030293FFF77AF8A04271EB05034DD263
:10152000454B201A65EB0101984271F100017DD213
:10153000424B03EB0613D3E902239D4208BF9442BA
:1015400049D006F150039B009BB203F1804303F5A1
:1015500088334FF0000BC7F84883C3F800B01A680F
:10156000032224F07F4E019206F5A872F4460392FE
:10157000039933482CF07F4247F82120C7F8448371
:10158000D7F804156FF00202521A624422F07F422B
:10159000824220D91A685AB1D7F80415A1EB0E027D
:1015A00022F07F42B2F5000F15D9C3F800B01A68D7
:1015B000019A02EB010C01320192D9E7214BBFF3F2
:1015C0005B8F53E8001F41EA090143E80012002A3B
:1015D000F7D1BFF35B8F19491B4801EB06123301AA
:1015E000C2E90245C85000205060029BDBB1BFF346
:1015F0005B8F5AE8003F43EA09034AE80032002AB9
:10160000F7D1BFF35B8F0F4BC7F80483BFF35B8F3A
:101610001B68BFF35B8FF340DB0742BF0B4B4FF4FC
:101620000032C3F8002105B0BDE8F08F6FF015005F
:10163000DBE700BF0010014001008000C001002076
:10164000FDFF7F006C1700205516000000E100E050
:10165000681700202DE9F8433749D1E9006322F0EB
:101660007F45921B140A22F0FF02921943F10003F6
:10167000C1E90023A5F50011B1F5400F0AD22F49A9
:1016800009684FEA112C09064E192D494CF1000743
:10169000C1E9006712F5807243F10003FFF712FF02
:1016A000EFF3118C202383F31288BFF36F8FDFF8E1
:1016B0009C80244ED8F80000234D3460404508BF7C
:1016C00000204FF00009D5E900213368674628B3B0
:1016D000C4689C4202DDE41AC4601FE0A21841EB1A
:1016E000E471C0F80C90C5E90021FFF741FA87F3D7
:1016F0001188BFF36F8F83689847EFF3118720231A
:1017000083F31288BFF36F8F3368D8F800001B1B78
:101710004045BC463360D6D1D5E900219A1841EB4B
:10172000E3710023C5E90021336087F31188BFF31B
:101730006F8FBDE8F88300BFD80100207417002028
:10174000E001002070170020D00100204C00002094
:1017500070B5094D2B784BB9084C0126C4F80065CB
:1017600005F0FCFF20B92E70C4F80005002070BD04
:101770004FF0FF30FBE700BF9C2E002000A002507E
:101780002DE9F0473E4EDFF8FC800027464502D3A6
:101790000020BDE8F087D6E9015306F10C02B3F54D
:1017A000802FC6E903222CBF082204229B1AEC1DBD
:1017B0001D4424F0070425F007052D1BED083460B7
:1017C0002946C4E90257204607F067F94FEA800925
:1017D00009F11B094FEAD90904F10C0200239842D0
:1017E00049DA4FEA490301220021204606F0D4FFDE
:1017F00000231A461946204606F0CEFFA368B3F52B
:10180000004F2BBF6368638843F0010343F001037B
:10181000A5EB090A2CBF6360638001224FEA4A03EB
:101820004946204606F0B8FF00224B46494620466E
:1018300006F0B2FF134629460122204606F0ACFF0F
:10184000294653460022204606F0A6FFA36804EB73
:10185000C505B3F5004F2BBF6B686B8843F00103E0
:1018600043F001032CBF6B606B804946204607F0B4
:101870000FFA14368AE742F8047F0133AFE700BF5E
:10188000D8000020D80000202DE9F047058B044641
:101890002807904612D4022905F0070540F0CD80B4
:1018A000204606F097FF80B10138218B042800F212
:1018B0009F80DFE800F0C29D657D8D0001290CBF8F
:1018C00045F0100545F02005258388F31188BFF306
:1018D0006F8FBDE8F08701F007035A1F012A1CD85B
:1018E000002221F00701062B276889B2C4E90022F3
:1018F00009D13B4603E0628B013262831B68002BF7
:10190000F9D141F002012183204606F063FF00284F
:1019100000F0A18041F020019CE0042B0AD121F0CD
:10192000070189B22183204606F054FF10B141F02F
:1019300020012183218B01F0070AAA4575D00027D9
:10194000B946A368002B00F08E8041F00801218386
:1019500088F31188BFF36F8FA168002900F08C8095
:101960000D68002900F08880D1F804803346524683
:101970002046C047002D48D02B6829461D46F0E779
:10198000236921F0070141F00601062DD3F80090EC
:10199000218335D1B9F1000F47D041F008012183EF
:1019A00088F31188BFF36F8F3D492046C84731E067
:1019B00021F00701236941F0040189B2042DD3F815
:1019C00004902183E6D000273E464FF0040AB8E792
:1019D00021F00701236941F0050189B2052DD3F8F3
:1019E00008902183D6D000273E464FF0050AA8E78D
:1019F00001F0070AAA4518D00027B9463E46A0E7DD
:101A000000273E464FF0060A9BE72B46B5E7B9F1A3
:101A1000000FC9D1EFF31188202383F31288BFF39D
:101A20006F8F238B23F008032383258BEA062ED5A3
:101A300025F01003238305F007056669218B002E2E
:101A4000BFF649AF00232768C4E9003321F007013E
:101A500041F001012183218B01F0070AAA454FF0D3
:101A600000097FF46EAF002F94D041F0080121836C
:101A700088F31188BFF36F8F002FC8D03D683946B7
:101A800033465246204606F092FE2F46F4E7AB0658
:101A90007FF51BAF25F02003238305F00705FFE644
:101AA000538D000010B50D4B00221C7884420FD0DE
:101AB0000132092A03F11003F7D16FF0010010BDC4
:101AC000D2685078C00706D5107820B90B60F6E7C9
:101AD000DA68002AF4D16FF01200F0E7C89600002F
:101AE000074A936893F90E10002907DB9269934225
:101AF0001FBF044A536843F080535360704700BFD0
:101B00007C28002000ED00E008B5EFF30583064ACD
:101B1000103B02EBC30152F8330049688847BDE827
:101B20000840FFF7DDBF00BFD89A000008B572B6C5
:101B3000002383F31388FEF7CFFB144B4FF0FF32E3
:101B4000C3F88020C3F88420C3F88820C3F88C2011
:101B5000C3F89020C3F89420C3F89820C3F89C20C1
:101B6000C3F88021C3F88421C3F88821C3F88C21ED
:101B7000C3F89021C3F89421C3F89821C3F89C219D
:101B800062B6BFF34F8FBFF36F8F08BD00E100E077
:101B9000094A93686FF00A0119670849D8664B68CB
:101BA00043F080534B60002383F31188BFF36F8FA2
:101BB0009368186F704700BF7C28002000ED00E09C
:101BC000EFF31183202282F31288BFF36F8F4BB99A
:101BD000EFF3058030B9064A91699268914201D0CD
:101BE000FFF7D6BF83F31188BFF36F8F704700BF35
:101BF0007C280020F8B505460C46EFF3118720231A
:101C000083F31288BFF36F8FCB689807C3F3400646
:101C100007D587F31188BFF36F8F6FF00F0630463B
:101C2000F8BD590704D587F31188BFF36F8FF6E726
:101C3000DA0716D5A568ADB302261D48D5F8D03011
:101C40008068A842C3F3800203F0010102D1EFF3E0
:101C5000058040B149B30AB91B0707D56FF00F06DD
:101C6000E1E70126E9E701B3002AF5D0002323606C
:101C7000D5F8BC3093B9C5E92E44002105F1C00068
:101C800007F0FEFBE36843F00403C4E9025387F363
:101C90001188BFF36F8FFFF793FFC0E71C60C5F893
:101CA000BC40EAE76FF01506BDE76FF01206BAE731
:101CB0007C280020F8B50E4C04252027EFF3118670
:101CC00087F31288BFF36F8F6368103307D16FF00B
:101CD0008B030848636004F12C01FFF78BFF86F348
:101CE0001188BFF36F8F013D04F14004E6D1F8BDC8
:101CF000DC250020DC26002001490248FFF77ABFDE
:101D000074230020D81F0020F8B5EFF3118520239D
:101D100083F31288BFF36F8F19498868437B03F000
:101D20007F03437306F071FE8B685A7B084662F0AE
:101D30007F025A7350F81C2F0C6A824208BF00229F
:101D400022B9C3E9000423600B620CE093F90E6032
:101D500092F90E70BE420ED0B7420CDD5168C3E955
:101D600000210B6053600120FEF7EAFE2846BDE823
:101D7000F840FFF70DBFA242E3D01268E0E700BFD2
:101D80007C28002010B5114A9168034681F8B500FF
:101D9000EFF31181202181F31288BFF36F8F9069D7
:101DA00090600B4A4FF00061516090F8B54023F00D
:101DB000FF0300221C43C36EC26683F31188BFF386
:101DC0006F8FFFF797F9204610BD00BF7C280020D9
:101DD00000ED00E0084AC2F898000B6823F01F03EA
:101DE000034343F01003C2F89C308B6843F00103B7
:101DF000C2F8A030704700BF00ED00E02DE9F04FC1
:101E000043685A6B5368117A93B0804603EBC10163
:101E1000994205D86FF00104204613B0BDE8F08F59
:101E20005879002800F035820833F1E73B685904FF
:101E3000C3F3C322C3F3080400F125821B0E1AF872
:101E400002105C4508BF4FF0FF34222B00F21E82C7
:101E5000DFE813F023000A011101140117011E012C
:101E600014011C021C021C021C0230013B011C025A
:101E70001C021C021C021C021C021C021C021C0272
:101E80003E01540157015A011C021C021C025D0153
:101E9000750178017B017E018101C5F80C45661C46
:101EA00040F020810437B945C0D1AE4E022129202F
:101EB000FEF744FA96F83030D8F80450002B40F082
:101EC0004D81D8F81030A84AC6E90023002D00F053
:101ED000848095F829401CB195F82A30002B45D113
:101EE0006868FF2800F03C81AB68FF2B00F0388168
:101EF000EB68FF2B00F034812B69FF2B00F0308161
:101F000074BB03272346012221460097FEF716FFE4
:101F10000097A868234601222146FEF70FFF00978D
:101F2000E868234601222146FEF708FF009728694A
:101F3000234601222146FEF701FF6869FF2805D0EC
:101F40000097234601222146FEF7F8FEA869FF28E4
:101F500006D003230093002301221946FEF7EEFE6C
:101F600095F82A3013B9281DFEF706FF6B6A7363D4
:101F70007E4C95F8293086F83A300123C4F80833AE
:101F8000FEF728FF2B68C4F84035AB7F697F2A7FB6
:101F90009B0143EAC1031343EA7F43EAC213C4F837
:101FA0004435D4F8002695F8203022F07F4222F004
:101FB000FF02134395F8212043EA026395F822209B
:101FC00043EA426395F8232043EA0273C4F80036DB
:101FD000336813B12920FEF791F90023C6E90233D3
:101FE0000122634886F8302086F83830FEF784FAFC
:101FF000041EC0F2EE805F4F0FCF0CAC0FC497E809
:102000000300002303AF039384E80300C7E901330F
:10201000AB238DF80C30554BD3F82425D2B2069261
:10202000D3F82825D2B20792D3F83025D2B208923D
:10203000D3F83425D2B20992D3F83825D2B20A9215
:10204000D3F83C350CA8DBB20B93FEF795FE96F85F
:10205000383003F0FF09002B00F0928006A8FEF74D
:102060008BFE6FF00404B4E0C5F81445601C3FF427
:1020700019AF002640E0C5F8084510E7C5F810453F
:10208000F4E7621CC5F808453FF40CAF002605E0F4
:10209000631CC5F80C453FF405AF01260CA80C9451
:1020A000FEF7A4FA0C9B0246012000FA03F3C2F8E3
:1020B0000C3533E0C5F808450029D7D1621C3FF440
:1020C000F1AE00263046062128E0C5F80C45F3E7BE
:1020D000C5F86045661C3B683FF4E4AEC3F30043BB
:1020E000002BDAD00CA80C94FEF780FA0C9B01268A
:1020F00006FA03F3C0F8083530460FE0C5F864452A
:10210000E8E7C5F86845E5E7C5F86C45E2E7C5F8D6
:102110002445601C3FF4C6AE002001263B680091B8
:1021200003F40042002A08BF0146C3F341230EBF57
:102130003246012200212046FEF700FEB2E6C5F835
:102140002845ACE6C5F83045E3E7C5F83445E0E797
:10215000C5F83845DDE7C5F83C45A0E6064845E743
:10216000064843E790170020FB92000000900240D1
:102170000000AD0BC09500000C00AD0B0400AD0BD2
:102180000120FEF7B1FB014606A8FEF7F5FD464B20
:1021900099427FF466AF49463846FEF753FE041E67
:1021A00017DB424B4FF4007043F0010398479F2325
:1021B000CDE90C994FF0030A8DF83030494606AB53
:1021C0000CA80697CDF81CA00E93FEF73BFE041E4C
:1021D00007DA96F83030012B7FF41EAEFEF714FCC0
:1021E0001AE65246394605F1300006F053FF044620
:1021F000002843D1D8F80420537F023B012B3BD960
:10220000157F023D022D8CBF00250125022140468D
:1022100006F00FFC002834DBC3B2C0F34000854257
:10222000D7D083F00203002501214046ADF80850C5
:102230008DF8093006F0FDFB041ECADB02AB0693E5
:1022400002230793012106AB0CA88DF808400C95DA
:102250000E958DF830100D93FEF7F4FD044600281E
:10226000B7D10121404606F0E4FB041E01DBE30781
:10227000F7D404EAE474ACE70125C7E76FF0120471
:10228000A7E70446A5E76FF01504C5E56FF08504E0
:10229000C2E51F6893F804901568DFF814A007EBF7
:1022A000890940F2FF1BFEE50000AD0BF095000030
:1022B000519A0000064B10F0800FA3F1D80208BF1E
:1022C000134600F00F00182202FB0030704700BFD9
:1022D000F018002038B5114B93F824300446CBB1E8
:1022E00005782846FEF766FF10B96FF0150038BD77
:1022F000457223798372638843602078618810F087
:10230000080F02D14B1E0B42EFD1FFF7D3FF8182A2
:102310000020ECE76FF01200E9E700BF4C2300203B
:1023200010B50246EFF31184202383F31288BFF324
:102330006F8F06F0C1FE0B49012303FA00F00B6812
:1023400023EA00030B6012F0080101BF02F00F0244
:10235000054B02F5947243F8221084F31188BFF301
:102360006F8F10BDD019002000700240F7B50146F4
:10237000EFF31185202383F31288BFF36F8FFFF7EC
:1023800099FF0646084606F097FE012211F0800FDD
:1023900002FA00F22D4818D1036832EA03040AD089
:1023A0000846FFF7BDFF0323B37585F31188BFF31C
:1023B0006F8F03B0F0BD2649347323EA0203036034
:1023C0000B6823EA02030B60EDE70B0715D48029A5
:1023D000204B2FD001F00F0404F2DA346400C3F86C
:1023E0000048D3F80448D3F80478E4B244F0020477
:1023F0003C43C3F80448D3F80438154F04683B68DD
:1024000064EA030C1CEA020FCFD013433B600023A5
:1024100033730323B3758DF807300F4B8DF8061017
:1024200024EA0204062204601B688DF8042001A837
:102430009847BAE740F2B474C3F80048D3F80448A8
:10244000D3F80478E4B244F00404D1E7CC190020B6
:10245000D019002000700240D419002070B500F09F
:102460000F03012510F0800F194A044605FA03F303
:1024700004D0D2F810150B4223D070BDD2F8141539
:102480000B42FAD1D2F814150B43C2F81435431E8F
:10249000062BF2D8EFF31186202383F31288BFF3C3
:1024A0006F8FFFF73DFF204606F006FE094A1368CE
:1024B000854023EA0503136086F31188BFF36F8F0D
:1024C000DBE7D2F810150B43C2F81035D5E700BF93
:1024D00000700240CC190020030610B5044605D454
:1024E000FDF7B6FF10B12046FFF71AFF014BC3F806
:1024F000184510BD0070024073B504798DF807408F
:1025000062060D4607D02046FDF768FE78B1184BED
:1025100093F8BA0058B1164E5DB12046FEF77AFE28
:10252000F3691BB10DF1070108209847012002B0A3
:1025300070BD104B93F8242092B193F825307BB1F5
:102540002046FEF737FE58B1230709D40A4B44F45E
:102550008072C3F80C452046C3F80C25FFF7BCFF7A
:10256000F369002BE2D00DF107010920DDE700BF80
:10257000B02700204C2300200070024070B5154E9B
:1025800096F824300446DBB1FEF714FE0546D0B1C0
:10259000230709D4104B44F48072C3F80C4520463D
:1025A000C3F80C25FFF798FF2B7A7BB901232B7218
:1025B00096F8253013B12046FFF750FF002070BD7C
:1025C0006FF01200FBE76FF01500F8E76FF077008F
:1025D000F5E700BF4C2300200070024030B50D46E7
:1025E000816887B0102302AA1039044606F020FC47
:1025F000002802DA012007B030BD102202A92046CF
:1026000006F080FC00283FD12049102202A806F0E5
:1026100041FD00280CBF012302232B70A16818394B
:1026200021F0070101230DF107021039204606F0C1
:10263000FFFB0028DEDB9DF8073003F00F021B09CB
:102640006A702B7101220DF10701204606F05AFC39
:1026500010B96B78042B03D901236B7000232B7105
:10266000A268183A22F00702083AA91C204606F090
:102670005AFC0028BED1A268183A22F00702E91CD1
:10268000204606F050FCB6E70323C6E74099000059
:1026900030B5816885B0103921F00704054606F091
:1026A0002AFC10220146684606F0D4F80749102299
:1026B000684606F089FC10236A462146284606F043
:1026C000D9FB003818BF012005B030BD409900008B
:1026D00010B506F0D7F840B14FF080430022C3F8A0
:1026E0000C21C3F81021C3F8382506F0CBF80028D8
:1026F00046D04FF08052644BD2F80414C3F8201532
:10270000D2F80814C3F82415D2F80C14C3F828150D
:10271000D2F81014C3F82C15D2F81414C3F83015DD
:10272000D2F81814C3F83415D2F81C14C3F84015A5
:10273000D2F82014C3F84415D2F82414C3F848156D
:10274000D2F82814C3F84C15D2F82C14C3F850153D
:10275000D2F83014C3F85415D2F83414C3F8601505
:10276000D2F83814C3F86415D2F83C14C3F86815CD
:10277000D2F84014C3F86C15D2F84424C3F870257D
:10278000FDF766FF18B1414B414AC3F88C26FDF7AF
:102790005FFF18B13F4BFB22C3F81825FDF758FF28
:1027A00070B14FF080414FF08053D1F8E42ED3F850
:1027B000583222F00F0203F00F031343C1F8E43E36
:1027C000FDF746FF20B1344B4FF40072C3F84026AA
:1027D00006F058F848B14FF08043D3F80024D207F0
:1027E00044BF6FF00102C3F800242C4AD2F88830AD
:1027F00043F47003C2F88830BFF34F8FBFF36F8F7D
:102800004FF08053D3F83021082A0ED1D3F8343159
:10281000052B02D8224AD35C3BB14FF01023D3F8EA
:1028200008224FF08043C3F858254FF01023D3F807
:102830000022002A03DBD3F80432002B22DA1949E4
:1028400001234FF01020C1F804351224FDF712FFC8
:10285000C0F80042FDF70EFFC0F80442FDF70AFF82
:102860000023C1F80435FDF705FFBFF34F8F0B4977
:102870000D4BCA6802F4E0621343CB60BFF34F8F85
:1028800000BFFDE710BD00BF00C000400050004089
:102890004881030000F000400090024000ED00E09D
:1028A000459A000000E001400400FA054B1CF0B519
:1028B00000F1180525D0164B0362EFF31187202392
:1028C00083F31288BFF36F8F124A13685668013181
:1028D0004162934208BF002323B9C0E90626356050
:1028E00055600AE0DC68416A8C420BDD5A68641A64
:1028F000DC60C0E9063215605D6087F31188BFF3C4
:102900006F8FF0BD091BB3424162E6D01B68E3E75D
:10291000479200004C000020F8B5806890F90E3016
:102920008B423FD0EFF31185202383F31288BFF34E
:102930006F8F437BDA0649B219D18469BCB903F0C1
:102940007F03437306F061F8437B174A817363F09A
:102950007F034373134653F81C6F9E4218BF3446DF
:10296000166A5CB9C0E900363060106211E081730C
:10297000002085F31188BFF36F8FF8BD94F90E70B6
:10298000B9420BD08F4209DD6368C0E9004318608B
:1029900060600120FEF7D4F80120EAE7A642E1D00A
:1029A0002468DEE70020E8E77C28002070B490F976
:1029B0000D30427B002B29DBD30627D183692BBB4B
:1029C000134962F07F0242730A4652F81C4F944248
:1029D00018BF23460C6A23B9C0E9002420600862AE
:1029E0000CE090F90E5093F90E60B5420AD0AE4259
:1029F00008DD5A68C0E900321060586070BC0020E1
:102A0000FEF79EB89C42E7D01B68E4E770BC7047B5
:102A10007C28002030B50023C0E92E3300F1C0032C
:102A2000C0E9303300F1C803C0E9323387B004464F
:102A300015462AB31379002B40F2011308BF012376
:102A4000C4F8D03000234FF0FF32CDE90323CDE9A5
:102A5000013300940B4B4FF48862204603F080FA58
:102A600045B12B68002BFFD06B791BB1237B43F062
:102A700001032373204607B0BDE8304006F094BB45
:102A80000123DDE73136000038B51C4B1B7813B14C
:102A90006FF0040038BD03F029FA194B9842F7D1C2
:102AA000184D2B7863B9FDF765FC4FF0804300BBF0
:102AB0000124C3F88045C3F87845FDF7E3FD2C7089
:102AC0004FF080434FF46072C3F808230E4B0F4A57
:102AD0001A600F490F480022FFF79CFF0E4C10228E
:102AE000002104F1280005F0B5FE0C4BE362002044
:102AF000D0E70122C3F83826DAE700BF872E00208E
:102B00000000AD0B832E0020C8190020E54800000E
:102B100080340020D81F00204C230020C158000022
:102B200007B5074B93E803006A4682E803000549AE
:102B30000548FFF76FFF002003B05DF804FB00BFFE
:102B4000D895000000300020DC2600202DE9FF4849
:102B50007B4A7C4B22F07F029A60BFF34F8FBFF31A
:102B60006F8FD3F8882022F47002C3F88820D3F83E
:102B7000882042F4A002C3F888204FF04042C3F8F6
:102B80003422BFF34F8FBFF36F8F0024E1EE104A62
:102B90006D486E4A2146121A05F05CFE6C486D4A7B
:102BA0006D49121A06F010FA6C4A6D496D4806F02C
:102BB0000BFA60B201210134FDF7C0FB302CF8D1D3
:102BC0000020FDF787FF684F87F308885D4C674E4C
:102BD000636943F4007363610025E02384F82230C5
:102BE000E57725766576A57684F82050636A43F408
:102BF000E023636284F82350636943F01003636148
:102C0000636923F008036361102323614FF0FF33EE
:102C1000A362E362D4F890301B0A13F0FE0F1AD0BF
:102C2000BFF35F8F5249C4F894502846FFF7D2F89B
:102C30000C310120FFF7CEF802233370D4F8902036
:102C4000C2F30722934275DB0523C4F89430BFF327
:102C50004F8FBFF36F8F31784648474DDFF8308193
:102C6000DFF830A1012203F0D7F9444B3070002483
:102C700040F201120120424E9A81C3E917449C663A
:102C8000AB60FDF727FF0220FDF724FF4FF0010B9B
:102C900005F11C03C5E90733AE613A490094434688
:102CA0004FF42152CDE9034BCDE90144304603F006
:102CB00057F9737B814623F004033046737306F0A3
:102CC0008DFA0F23CDE90243CDE900542E4B2F4955
:102CD000CDF810B04FF4A072504603F041F99AF8C5
:102CE0000D30C5F80CA023F004038AF80D302C74C5
:102CF0006F60E1EE104AEFF3148323F0040383F3D3
:102D00001488BFF36F8FBFF36F8F3046AE60FEF74E
:102D1000F1F945462C4689F309884FF000001E4B17
:102D2000984720464FF000014FF000024FF000039B
:102D30001A4C2047C4F89830C4F8A05001337DE7FE
:102D40000000000000ED00E0C0010020A02F0020E6
:102D500000000020BD010020589C00000000000081
:102D6000589C000000000020806B0020882E00206E
:102D7000F8950000C09700007C2800202822002041
:102D800070210020803A0020E389000000390020F3
:102D900055510000B82000206D8F0000C5300000A4
:102DA00008B590F90D20437B002A014604DA03F0B0
:102DB0007F03437305F029FE044B9868431A584279
:102DC0005841BDE80840FDF7BBBE00BF7C2800208D
:102DD0002DE9F041044620B9FEF796FF2046BDE8F4
:102DE000F081114F831C0BBF3D686FF00105023D60
:102DF0002D1AEFF31188202383F31288BFF36F8F0E
:102E00000A4EB068FFF7CCFFB0682146FFF74EFDD1
:102E1000B268537B43F0100353734046FEF7B8FE8D
:102E20003868281ADBE700BFD00100207C2800208A
:102E30002DE9F041002A427B0E460CBF10210821EB
:102E4000114204460FD141EA0203D20918D143735B
:102E500008291BD00120FDF773FEBFF35F8F637B52
:102E600023F0600363733C4B9B68A3426ED1EFF386
:102E70000583002B6AD13046BDE8F041FEF788BEDD
:102E800003F07F03437305F0C0FDE1E7A36813B1CE
:102E9000204606F0B2F9204606F070F9256D04F1DF
:102EA0005007AF420FD04FF0000865B1284606F03A
:102EB000A4F906F063F9C5F870802846FFF776FD9F
:102EC000256DAF42F1D1244DAB689C420BD001205F
:102ED000FDF736FEAB689C42BFD1EFF30583002BB4
:102EE000BBD1002218E0EFF305830120002BEFD0C7
:102EF000FDF726FEAB689C4209D0184BAB6040F250
:102F000001129A810022C3E917229A66A5E7EFF31E
:102F10000583002BF1D10122EFF31181202383F3EC
:102F20001288BFF36F8F237B23F002032373EFF329
:102F3000148323F0040383F31488BFF36F8F81F3AA
:102F40001188BFF36F8F002A87D0D6E786F31188E8
:102F5000BFF36F8FBDE8F0817C280020282200207D
:102F6000184B9B6883420BD1EFF3058343B1164B9B
:102F70005A6842F080525A605A6A22F400425A62F9
:102F8000EFF31181202383F31288BFF36F8F037B4C
:102F9000DA070CD581F31188BFF36F8F002383F319
:102FA0001188BFF36F8F0423184602DF7047437BFD
:102FB0001B0704D581F31188BFF36F8F704701227F
:102FC000FFF736BF7C28002000ED00E030B53C4B19
:102FD0005B689DB0C3F30803002585F31188BFF338
:102FE0006F8F02F07F44B4F17F4F08D102F00C04E0
:102FF000082C04D012F0080F0CBF05460D46002225
:10300000033B8DF80720032B03D8DFE803F0104FB4
:10301000534C00249DF80730002B4FD129466822DD
:1030200002A805F0D1FF02A9204606F0F0F8244BD3
:10303000DA6A9107EDD4DA6A002AEADBDA6A52002A
:10304000E7D55A69A96942F480725A61BFF34F8F7C
:10305000BFF36F8F5A6931F8021C22F480725A61F3
:10306000BFF34F8FBFF36F8F4DF6027291420AD0BC
:103070009A6AD2B24AB10DF1070201212846FDF742
:10308000C9F80446C6E72C68C4E79A6A12F47F4F71
:1030900005D00DF10701012003F014F8F1E79B6A58
:1030A000B3F5803FB5D302F0E3FFEAE70DF1070285
:1030B0000021E3E70DF107010020EDE71DB030BD71
:1030C00000ED00E0044608B5084611461A46A04740
:1030D000014B9868FFF744FF7C280020431C10B583
:1030E0001AD1134B9C68204606F048F8EFF3118183
:1030F000202383F31288BFF36F8F627B12F01002DC
:1031000006D081F31188BFF36F8F4FF0FF3010BDF1
:103110002046FFF78DFEF8E7FFF75AFE4FF47A716D
:103120007F230022E0FB0132D80940EA4260EEE74B
:103130007C2800202DE9F0414C4D4D4BC5F808335B
:10314000C5F848334B4B00264FF0FF304FF0FF31AE
:10315000C5F80865C3E902014FF48033C5F80433AC
:10316000454B02214FF40032C5F804131120C3F877
:103170008021FDF7E3F81120FDF7C0F83F4B012453
:10318000AC604FF480722C6030461C600023FEF768
:1031900099F9BFF35B8F3A4A52E8003F42E8004199
:1031A0000029F9D1BFF35B8F33B9364936484B60FC
:1031B000CB608C6005F0DBFDEFF3058515B9334B73
:1031C0001B7803BBEFF31185202383F31288BFF331
:1031D0006F8F4FF00108284F4FF080440126D4F83C
:1031E0001824D4F81834D20314D503F00303012BA8
:1031F00010D1B8F1000F34D085F31188BFF36F8F71
:103200000020BDE8F0814FF080430222C3F808237C
:10321000A846E0E7B8F1000F1FD072B6002383F391
:103220001188BFF36F8FBFF34F8F20BF85F31188D5
:10323000BFF36F8F62B6D4F81835002BCFD1D4F816
:103240000421002ACBD0C4F80431D4F80431C4F8E6
:103250001865C7F88061A660C1E70120FFF73EFF4F
:10326000E9E70223C4F80433CAE700BF00100140B5
:1032700003000F00C001002000E100E068170020FB
:10328000641700205417002018230020802E0020EF
:1032900038B50446836853B3184A9268934229D1DB
:1032A000C368012B03D9013BC360002038BDEFF395
:1032B0001185202383F31288BFF36F8F0169FFF715
:1032C0002BFB204605F0E0FFA06050B190F90E20E6
:1032D00022610022026705F081FF284603F060FCAE
:1032E000E3E7E06085F31188BFF36F8FDDE76FF0F0
:1032F0001500DBE74FF0FF30D8E700BF7C28002047
:103300002DE9F043DFF8F0801E4698F8243085B0B0
:10331000074689461546002B5FD098F82530002BCC
:103320005BD003065CD5FDF745FF0446002857D067
:10333000037A002B54D04FF0FF3108F1380003F02E
:1033400081FCA37F4BB108F13800FFF7A1FF6FF0BC
:103350000A04204605B0BDE8F083A37AD5B153B383
:103360000123A3774FF0000801A93846CDE9019564
:10337000CDF80C8002F0DCFE1B4B984229D084F87B
:103380001E800EB1C6F800806FF004041748FFF7E6
:103390007FFFDEE7E27F02B1E577002BE0D1144B3F
:1033A0001B78BB42DCD0134B104801221A65FFF793
:1033B0006FFF0024CDE7B8F80A309D42EFD2626873
:1033C000B5FBF2F302FB1353002BE8D10123E377A3
:1033D000E5E706B135600024D8E76FF01204B8E7DE
:1033E0006FF01504B5E700BF0000AD0B842300208B
:1033F000842E0020007002404C230020F7B51A4CA8
:10340000237D3BBBE668A7680196042501AB3246E5
:1034100039468020FFF774FF0B3003D1FEF774FCB0
:10342000013DF3D1019AA3681344A360E3689B1A9A
:10343000E3606BB962B12369E2889A4208DD94F8CF
:10344000C82093FBF2F102FB11330BB90123237562
:1034500003B0F0BD00231A4619468020237503B03F
:10346000BDE8F040FFF74CBFB027002030B585B075
:1034700000230D460193014600285CD1002D35D173
:1034800008212A460DEB010005F063FF002804DA4D
:103490008020FDF7BFFE05B030BD2C4C029A2260A3
:1034A000039A626004F13802A2609DF90820BDF819
:1034B0000E302575002AC4E903550ADB802B04D998
:1034C0008020FDF7A7FE0020E3E713B1C4E9033332
:1034D000E1E702F07DFE0028DAD0E28823699A4213
:1034E000D4BFE260E360FFF789FFD4E7174CD4E96B
:1034F0000203002B01AA04DC05F02BFF0028CADA26
:10350000C6E7194605F025FF0028D9DB019AA36814
:103510001344A360E3689B1AE360002BBBD104F162
:103520003803A36002F054FE0028B1D005B0BDE816
:103530003040FFF763BF8028ADD1044BDA68002A22
:10354000F4D11B7D002BF1D1A5E700BFB0270020EF
:103550002DE9F0411D461F4B174693F824200E46D7
:103560008AB393F8253073B303062FD401B96FBB28
:10357000FDF720FE044648B3037A3BB316484FF0EC
:10358000FF3103F05FFBE368BB42984628BFB846B3
:1035900046B93FB905B12B600F48FFF779FE00200F
:1035A000BDE8F081A1694246304605F00DFDA369F2
:1035B0004344A361E368A3EB0803E360002DEBD071
:1035C000C5F80080E8E76FF01200E9E76FF015003A
:1035D000E6E700BF4C2300208423002008B5E0B1BB
:1035E0004368B3F5683F10D100220368BFF35B8FD7
:1035F00053E8001F012903D143E800200028F7D138
:10360000BFF35B8F07D0074808BD074A934207D036
:103610000068FFF73DFE0020F6E76FF4E040F3E7B7
:103620000248F1E7E98FFFFF2C5F5CA9EA8FFFFFFB
:10363000454E80B505462027EFF3118887F31288A1
:10364000BFF36F8FD5F8B840D5F8D0306CB923F000
:1036500004025807C5F8D02056D44FF0FF3205F1C8
:10366000C001404603F0B0FAE6E7D5F8BC10226886
:10367000C5F8B8208C4243F0020308BFC5F8BC204F
:10368000C5F8D030E36823F0040343F00103E3609E
:10369000636888F31188BFF36F8F20469847EFF374
:1036A000118887F31288BFF36F8FE368D90623F080
:1036B000010232D4E260E3689A0716D5306823F03D
:1036C0000203E36088B10368002170B1426894424C
:1036D00031D1036849BB72683360904200D1736096
:1036E000002340F8083B05F0E8FDD5F8D03023F082
:1036F0000203C5F8D03088F31188BFF36F8FDB0564
:103700009AD4FEF701FB97E705F1C8040121204692
:1037100005F0B6FE0028F9D19FE723F01103E3601E
:1037200004F1100005F0C9FDC5E70B60736898420D
:1037300008BF7160D4E723B11A68014618461346E2
:10374000C3E71A46F9E700BFE80100202DE9F84376
:103750000F463846194690461C4605F010F90028D9
:1037600039D047EA040515F0030534D1A4B11B484C
:103770001B4EDFF870904FF0FF3105F09DF924F0FB
:103780000304A5420BD1164AD2F80034DB07FBD55F
:103790000024124805F091FD2046BDE8F883FCF7AF
:1037A000E5FEA8B9012258F80530C6F80425D6F878
:1037B0000024D207FBD5EB51BFF35F8F0023C6F87F
:1037C000043599F800300BB1FCF7FAFE0435D8E760
:1037D0006FF08B04DDE76FF01504DDE78017002044
:1037E00000E00140812E00202DE9F8430E464FF005
:1037F000805811463046D8F81050174605F0BFF8EB
:1038000000283FD0B6FBF5F305FB1363D3BBB7FB32
:10381000F5F405FB1474ACBBAF422DD31B481C4D13
:10382000DFF870904FF0FF3105F046F9D8F81080BE
:10383000FCF79CFE044610BB4FF080531A69B6FBA0
:10384000F2F302FB13635BB90223C5F80435C5F834
:103850000865D5F80034DB07FBD50023C5F804352F
:1038600099F800300BB1FCF7ABFEB7EB0807464404
:10387000DED1064805F021FD2046BDE8F8836FF053
:103880008B04F6E76FF01504F6E700BF8017002001
:1038900000E00140812E002010B50269BFF35B8F6C
:1038A000044602F1200353E8001F013943E80010E9
:1038B0000028F8D1BFF35B8F92F824303BB931B9BF
:1038C000054B93F83030012B01D1FDF79DF82069AD
:1038D000BDE8104005F0F1BC901700202DE9F04F35
:1038E000824685B088461C461746002A00F08B8029
:1038F000002B00F084800029C0F285804268D26AE3
:10390000CB1893427FD8C8F1000505F0030505F0F8
:10391000F1F8A54228BF25467B4203F0030307F0D8
:10392000030658BF5E42764206F00306A64228BF51
:103930002646631BA01B20F0030023F003098145EA
:1039400003F00302CABF814614461C1AB9F1000FE6
:1039500017D0BB19019308EB050203234946B81998
:10396000FCF7DEFF834601465046FDF781FC274BFE
:103970009B453BD1B54204D001994A46781905F0E0
:103980000CFBC5B1C5F104060323A8EB0602042114
:1039900002A8FCF7C5FF834601465046FDF768FCC8
:1039A0001A4B9B4522D106F108032A460DEB030171
:1039B000384605F009FBBCB1082108EB05020323DA
:1039C0004A440DEB0100FCF7ABFF8346014650462D
:1039D000FDF74EFC0D4B9B4508D109EB0500224637
:1039E00002A9384405F0F0FADFF820B05046FFF79E
:1039F00053FF584605B0BDE8F04FFCF77DBD1846B3
:103A000005B0BDE8F08F6FF01500F9E70000AD0BD1
:103A10002DE9F3470F46054641681E469046002AA9
:103A200000F08180002B7ED0042B01D9B3077AD11E
:103A300017F0030477D1002F75DBCA6ABB199342D4
:103A400071D8284605F056F82146284605F00FF8AB
:103A5000044650B10121284605F009F82846FFF731
:103A60001BFF204602B0BDE8F087032E20D80421BA
:103A700003233A460DEB0100FCF752FF04460146D2
:103A80002846FDF7F5FB294B9C4237D1324641468B
:103A900001A805F099FA042102233A460DEB010032
:103AA000FCF73EFF044601462846FDF7E1FB25E012
:103AB00008F06043B3F1005F02D118F0030F2DD07E
:103AC000DFF868A0042EB14628BF4FF004094A462B
:103AD000414601A805F078FA02233A46494601A872
:103AE000FCF71EFF044601462846FDF7C1FB54457E
:103AF00004D1B6EB0906C8444F44E3D12046FCF795
:103B0000FBFC01210446284604F0B1FF0646284686
:103B1000FFF7C2FE002C08BF3446A2E702233A4654
:103B200031464046BCE76FF015049AE70000AD0B44
:103B30002DE9F047C1F30B03D0F804C006460F4649
:103B40001546002A70D0C2F30B0151EA03046BD171
:103B5000002F69DBBB18DCF82C20934264D804F0FA
:103B6000C9FF21463046D6F8048004F080FF0446A1
:103B7000002853D1DFF8BC90D8F82C30AB4224D1C8
:103B800000210220FCF758FFAA4604462146304691
:103B9000FDF76EFB4C452DD15744A5EB0A050220DD
:103BA000FFF79CFA0121304604F043FF041E31DB8D
:103BB00014F00104F3D1002DDED10121304604F0D0
:103BC00056FF002C08BF044628E0B5F5803F09D316
:103BD000BBB2A3B939460120FCF72EFF4FF4803A5F
:103BE0000446D3E7B5F5805F09D21149104C304641
:103BF000FDF73EFB2046FCF77FFC0446DDE7C7F3FC
:103C00000B000028F1D13946FCF716FF4FF4805A1B
:103C10000446BBE70121304604F029FF3046FFF798
:103C20003BFE2046BDE8F0876FF01504F9E700BFC2
:103C30000400AD0B0000AD0B38B50369C0E90533D6
:103C40000023C360837F04467BB1457A0A484FF066
:103C5000FF3104F031FF2846FEF788FB064805F0E7
:103C60002CFB064B8022C3F8042101232377002379
:103C70006377E377A37738BD3C01002000E100E0E3
:103C800038B5002464F07F00C0B2FDF793FA013428
:103C9000FFF7D2FF082CF5D10E4D0024E0B2FDF75E
:103CA00089FA036903B905610134FFF7C5FF082CE0
:103CB00005F14005F2D10848FFF7BEFF074BD3F8E6
:103CC0007C2212B9064AC3F87C220648FFF7B4FFEB
:103CD000002038BDD81D0020982400204C2300204F
:103CE000D8190020B825002038B50446FDF762FA3F
:103CF000054668B3037A73B34FF0FF31174804F0F9
:103D0000DBFE2046FEF732FB04F00F020123934056
:103D1000134A124814F0800F14BFD2F81015D2F8CD
:103D200014156FEA030315BF0B400B40C2F81035A2
:103D3000C2F8143505F0C1FA0A4B00248022C3F8FA
:103D400004212846AC77FFF777FF2C72204638BD58
:103D50006FF01500FBE76FF07700F8E73C010020FB
:103D60000070024000E100E010B50446FFF7BCFF20
:103D700010F1780F00D050B9054A204604F046FDF6
:103D8000D2F8C43023EA0003C2F8C430002010BDCA
:103D9000B027002038B58478EFF31185202383F312
:103DA0001288BFF36F8F124A002311461078A04289
:103DB0000ED1506860B110300FD101EB83126FF05B
:103DC0008B00114650602C310A48FDF713FF04E0C8
:103DD0000133042B02F14002E8D185F31188BFF3CF
:103DE0006F8F2046FFF7C0FFB0FA80F0400938BD62
:103DF000DC250020DC26002037B502461D4C137957
:103E0000517980788DF8000043EA0123ADF8023043
:103E1000D37803F003038DF8043004F0F7FCD4F8F2
:103E2000C4301842054608D01046FFF7B3FFEFF341
:103E3000058313B90120FEF7CBFF6846FEF74AFA67
:103E400010F1780F03D010B1002003B030BD9DF801
:103E50000000FEF793FB10F1780F01D00028F3D19A
:103E6000D4F8C43001202B4384F8B900C4F8C4301E
:103E7000EBE700BFB02700202DE9F047A34EB36960
:103E800004460F461546C3B9237803F01F03012BE0
:103E900000F0A380022B00F0038153B994F90000D5
:103EA0002A686178002835DA062916D008292CD02E
:103EB00041B16FF01500BDE8F08798470028E3D1C5
:103EC0000020F8E701231370517096F8C3305B00AF
:103ED00043F00103137002232EE16288100A011FD0
:103EE00001298446E5D90728E3D8716AD2B20C7853
:103EF000002CDED04E78664503D19A4200F017813F
:103F000001332144F3E70B7816E196F8BA301370C9
:103F1000012311E101390829CBD801A353F821F07D
:103F2000C13F0000B33E0000D13F0000B33E00009F
:103F3000453F0000B33E0000B33E0000B33E00002A
:103F4000593F0000724B93F82420002AB1D093F817
:103F50002530002BB4D1ACE76388756A63BBFCF7EE
:103F600001FA638886F8BA30F369002BA8D0694952
:103F700003209847A4E76B78042B10D0052B11D0B1
:103F8000022B04D16F796388BB4208BF01202B78D4
:103F90001D442B78002BEED100288AD0DFE795F85E
:103FA0000380F4E76388BB42F1D1B8F1000FEED192
:103FB0002846FFF721FFEAE7FF270020B846E8E799
:103FC0006388012B7FF475AF002386F8C33077E751
:103FD0006388012B7FF46DAFF7E796F8BA30D5F818
:103FE00000C0002B3FF465AF756AA38894F804E025
:103FF0002A46107800283FF45CAF5178022904D19A
:1040000092F80480F04500F299800244F1E78CF8C0
:1040100000208CF80120396052E715449AE00B2A01
:104020007FF447AF00274FF0FF08C146BA4606E0CD
:104030006B78042B0FD0052B21D02B781D442B78C7
:10404000002BF5D1F36913B1514607209847002F93
:104050007FF436AF2DE795F80280A38895F803909A
:104060009845EAD163889945E7D1B8F1070F14D88C
:1040700006EB0803AA4683F8BB900127DDE7A38877
:104080004345DAD1A3784B45284603D0FFF782FE9B
:104090000746D2E7FFF7B0FEFAE7AA460027CCE7CB
:1040A00094F900206378002A24DA002B7FF401AF12
:1040B00024792D6863060AD02046FCF78FF8002883
:1040C0003FF4F7AE96F8BA30002B3FF4F2AE104B47
:1040D00093F824205AB193F8253043B12046FDF7D8
:1040E00069F820B11DB12046FCF7B2F92870002311
:1040F0006B70F0E6012B0FD0032B7FF4DAAE6388F0
:10410000002B7FF4D6AE01210AE000BFB0270020CB
:104110004C2300206A280020618800297FF4C9AE62
:104120002046FEF7E9F900287FF4CAAEC1E602286E
:1041300029607FF4E8AE4B883B60C1E694F900004B
:1041400062780028BFF66BAF002A3FF460AF0A2AFE
:104150007FF4AFAE2A78002A3FF4ABAE6978042929
:104160007FF45BAFA9788B427FF457AF072B96BFE4
:104170009B19002393F8BB308CF80030C8E600BFD1
:1041800004282DE9F14FDFF8A09004460F4616D021
:1041900001282DD1DFF88C8098F8B93043B3FDF7B2
:1041A00089FD1F4D4D4520D2D5F820B04FF0000AB3
:1041B0002B7F5FFA8AF6B34204D82435F2E7FCF786
:1041C000D1F8E7E70BEBC6060AF1010A3079FFF7F1
:1041D0008BFD0246307904F019FBD8F8C430002A70
:1041E00023EA0003C8F8C430E2DA002388F8B930C3
:1041F0000B4D4D4508D30B4B1B6A6BB1394620461E
:1042000001B0BDE8F04F1847EB681BB13A462146B4
:10421000284698472435ECE701B0BDE8F08F00BF91
:10422000BD010020B0270020BD0100202DE9F04F86
:10423000614B624ED3F8542185B0DAB10022C3F845
:104240005421D3F804138C0214D58DF80C20D3F824
:104250002025ADF80E20D3F8C034002B336814BFEE
:104260004FF001224FF4807213433360544B03A884
:104270001B689847504BD3F8604134B10022C3F813
:104280006021D3F86C44C3F86C44D3F828214AB1B8
:104290000022C3F828214B4B187804F00DFF0123AE
:1042A00083401C43DFF83481474F98F8005098F959
:1042B000009015F0080143D1B9F1000F05F00F038C
:1042C0002EDA424A52F8230020B342F82310142277
:1042D000534303F1804303F51C33D3F808363C4ABB
:1042E000117803F001034B401370FCF769F839486B
:1042F00004F0E3FF2846FDF7DDFF837D032B37D174
:10430000284604F0D9FE012303FA00F03B6823EAB3
:1043100000033B60DFF8A8A001254FF0060985E007
:104320002D4A52F823000028F4D042F8231014221A
:10433000534303F1804303F51C33D3F80837CEE72A
:10434000B9F1000F1C4B09DBD3F85021002AE1D052
:104350000022C3F85021D3F8A837C0E7D3F82C21A6
:10436000002AD7D00022C3F82C21D3F8A836B6E70C
:10437000037BDBB9284604F09FFE012303FA00F01B
:104380003B68B9F1000F23EA00033B6001DA882D96
:10439000C0D106238DF80C3000238DF80F30084B68
:1043A0008DF80E501B6803A89847B3E7002DB1D1D4
:1043B000014B0122DA64ADE700700240D019002001
:1043C000D4190020842E0020CC190020087102404E
:1043D000852E00203C01002030710240822E0020FA
:1043E00094FAA4F3B3FA83F30F2B32681946C8BFCB
:1043F000A3F1100105FA03F342EA0302CCBFC9B2EC
:1044000041F0800132603A68080624EA030403EAB6
:10441000020340F18E804BB98DF80C908DF80E1090
:104420008DF80F30DAF8003003A89847002CD7D168
:10443000A14BD3F800215AB1C3F800419F4B1C7027
:104440009F4B1C70012303939E4B03A81B68984746
:10445000994BD3F85821002A2ED00022C3F85821B6
:10446000D3F80044C3F80044E20508D5934B012279
:104470001A7002230393934B03A81B689847A30564
:1044800008D58E4B00221A70032303938D4B03A88B
:104490001B68984765050FD5884B1A7862B10022D2
:1044A0001A70854B0122C3F808259A6504230393EB
:1044B000844B03A81B6898477F4BD3F85C3103B348
:1044C000814B9B681BB998F800305C0619D07A4B79
:1044D0000022C3F85C21D3F88034794A23F07F03AB
:1044E00013703B6823F001133B60336823F480337F
:1044F00043F00103336005230393724B03A81B6849
:1045000098473A6833681A4200F0D3806E48002119
:1045100004F0D2FA002840F0CC80DFF89CB1DBF840
:104520002C35002B4FD0684805B0BDE8F04F04F0A3
:10453000C4BE002B7FF47AAF8DF80C908DF80E106E
:104540008DF80F506EE719F0012314BF93FAA3F909
:1045500099FAA9F9B9FA89F9B9F10F0F3BD9A9F17B
:104560001005EDB22846FDF7A5FE044615F0080F2C
:10457000B0F814E02268406859D0DBF8C034D903A1
:104580005AD4834259D911464FF0000A73455DD180
:10459000003818BF0120002A5AD09A4558D2019AF3
:1045A0008DF80E50012303FA09F322EA03033B605E
:1045B00006238DF80C30434B02211B68A1758DF842
:1045C0000F1003A898473B680193019A336812EAD9
:1045D0000309B8D1A7E749F080052846FDF76AFE30
:1045E0004368B0F814A001689A4528BF9A4601F0C4
:1045F0006043B3F1005F044604D03448524604F0EF
:10460000E3FC32492268636852442260A268A3EB4B
:104610000A03D007636008D5BAF1000318BF01236D
:104620006AB2C3B90023237315E0003BF6E705F532
:1046300094735BF82330A4E7002303EB020AC01A4B
:10464000C4F800A0114660609A469FE70020A2E7E8
:104650006AB20028E6D004F015F918B1164B822092
:10466000C3F81C0C336888F80050012000FA09F9DF
:1046700023EA09033360236915F0080F53442361CB
:104680000D4B25D1002A05F00F054FF0140202FB57
:104690000532A9BF0A3503EB8503C2F80017C2F83B
:1046A00004A7AFBF43F82500C2F80016C2F804A65D
:1046B000586005B0BDE8F08F00700240862E0020E3
:1046C000842E0020D41900203C010020D81700209F
:1046D000002AB5BFC3F8A016C3F8A017C3F8A4A654
:1046E000C3F8A4A7B4BF58629864E2E7F8B52B48B2
:1046F0004FF0FF3104F0E0F9294B8022C3F8842108
:104700005B681A0613D5274E274B34681B68240CA8
:1047100024041C43012764BB244D40F2FF13336083
:104720002720C5F80445FBF7F7FDC5F80043204AEC
:1047300013788BB11D4B0021C3F808110121C3F878
:104740000026C3F804165960D3F808110029FBD0DD
:104750000021C3F808111170144B0022C3F8002582
:10476000FBF72EFE0D4804F0A8FD124B01221A7033
:10477000F8BD94FAA4F5B5FA85F50F2D2846C6BF05
:10478000A5F11000C0B240F08000030701D4FDF78E
:10479000EDFD07FA05F524EA0504BCE73C0100201D
:1047A00000E100E0D0190020CC1900200070024088
:1047B000852E0020872E0020F8B50446EFF31186E1
:1047C000202383F31288BFF36F8F194D05F1080082
:1047D0006F6804F059FD48B100220267446104F09B
:1047E000FDFC3046BDE8F84002F0DAB920603FB980
:1047F0002B6823606B682C60002BF2D16C60F0E7B3
:104800003B68032B0AD86A6812B9C5E90044E8E797
:10481000136803F0030323431360EFE723F003035C
:1048200023603B6803F003031C433C60D9E700BFEF
:104830004C01002038B5044618B90F4B0F485B688F
:1048400098476168B1F5683F10D0B1F5680F0DD099
:104850000B4DA9420AD011F46861206807D00146C7
:10486000084804F053FD00232360656038BD14221E
:1048700003F0F0FFF9E700BF540000208499000026
:104880002C5F5CA9E022002010B5054C002002F04E
:1048900047FA20B14168204604F038FDF6E710BD24
:1048A000BC00002007B50E48002201A9FCF704FD5A
:1048B00088B1FFF7E9FF0A48002201A9FCF7FCFCD8
:1048C00038B90198042340600374FFF775FFFDF7C2
:1048D00013FA002001E00198406003B05DF804FB8A
:1048E000BC000020022810B511D8094B1C5CFFF752
:1048F000D9FF60B1002202740472FFF75DFF054B1F
:1049000093F824301BB1BDE81040FDF7F5B910BD98
:104910005F9A00004C2300202DE9F04F784895B0B5
:104920004FF0FF3102F08EF9764B93F8B820002A51
:1049300040F022825A6A6AB9734A744C1278002A8B
:1049400038D05C62724A9A62724ADA62724A1A63B8
:10495000724A9A616B4E724DD6F8248000233362FE
:10496000704BF3612B6095F82430002B00F06481CC
:104970006D4CDFF8C4910027A2460AEB8710102285
:1049800000212C3003F066FFC4F83090012301377A
:10499000C4E90933042F04F11C03C4E9073304F10B
:1049A0004004EAD198F80130012B00F070816FF0DB
:1049B00015043FE00025AA464FF0011BA946A84672
:1049C000237853B9594B02349C42F3D14E4B012208
:1049D0001A704C4B4D4A5A62B4E76378052B09D8DC
:1049E000DFE813F0AC0006002801AC000B00390032
:1049F0004023E37123781C44E2E7E378002BF9D1EC
:104A0000A378F3B108F101085FFA88F8F2E76A6861
:104A1000944219D024359D42F9D33A4B00225A6270
:104A20003B4A9A623B4ADA623B4A1A633B4A9A61C2
:104A30004FF0FF343248FEF72BFC204615B0BDE89E
:104A4000F08F3B4D3B4BE6E7AB68002BDAD041469D
:104A500020469847D6E7002DDFD02B7F0393002216
:104A6000039B9A42D9D2296AA07801EBC2010B7943
:104A7000834201D00132F3E7E07800F003000190B7
:104A8000A08802905BB201260493019B8DF8403010
:104A9000029BADF83E30049B002BF7B225DA06F1FD
:104AA0001003012000FA03F313EA0B0F24D147F09F
:104AB00080030FA8CDE906218DF83C30059303F063
:104AC000B3FEDDE905320799B0B913F0800F18BFC6
:104AD0001037A37018BFFFB20B714FF0010314BF62
:104AE000BB40B3404BEA030B84E70123B34013EA16
:104AF0000B0F01D13B46DCE70136102EC5D1B9E7DB
:104B000028010020B02700209B2E00205C010020FF
:104B1000793E000001010000A101000041010000F8
:104B20004C23002081410000DC250020BD01002035
:104B3000BD010020BD0100201D500000B9F1030F90
:104B40005FD18F4B0FAA03F11007186859681646FA
:104B500003C60833BB423246F7D11B7833701022AC
:104B600000210BA803F076FE12220021854803F0F5
:104B700071FE4FF0805209A9136E526E12BA09925B
:104B80001BBA08220BA80A9304F01EFA7D480BAA50
:104B90000146002612F8013B14AF07EB131703F090
:104BA0000F0350336B44013617F8147C13F8143C90
:104BB0000F70082E4B7001F10201EBD1002310F8A9
:104BC000012BD2B953B16E4911F8010BB8B99A4211
:104BD0006C49A8BF1A46A01C04F0F6F923786FF0C0
:104BE0000201E218091B04EB53030020D1421AD53D
:104BF00009F101095FFA89F9FCE60133DFE70132C7
:104C0000E2E7B9F1000FE9D1BAF1000F3FF405AFC7
:104C1000A4EB0A038AF80230C3F307238AF80330AF
:104C20008AF80480E4E702F8010C13F8016902F83D
:104C3000026DDBE7A246DDE6C5E9103305F1380376
:104C4000C5E90E330221504BEB612720FBF776FBC1
:104C50004FF080434FF46072C3F80423FFF710F85D
:104C6000044610B9012385F82430484B1B680BB16A
:104C7000FDF742F84FF08043D3F83834DB0702D514
:104C80000020FFF72FFE002CFFF6D4AE70E698F858
:104C90000730002B3FF48BAE00270FA886F8C830F2
:104CA000ADF83E308DF840708DF83C70FDF712FB8A
:104CB000041EFFF6BFAE4FF080080FA88DF83C80B1
:104CC000FDF708FB041EFFF6B5AE95F8243013B9C6
:104CD0006FF01204AEE63846FCF76CFA00283FF499
:104CE00066AE2B4C046095F82430002BF0D0404683
:104CF000FCF760FA00283FF45AAE0460DFF89890A1
:104D0000244C4C451CD30020FDF738FC041EFFF654
:104D100091AED6F8C430802043F00103C6F8C43009
:104D2000FDF72CFC041EFFF685AED6F8C43043F424
:104D30008033C6F8C430012386F8B830002479E601
:104D4000D4F820800027227FFBB29A4201D8243475
:104D5000D7E708EBC30258F833A095F82430107950
:104D6000002B3FF465AEFCF725FA013700283FF42D
:104D70005FAEC0F800A0E6E76FF077045AE600BF28
:104D8000D7990000892E0020FC2200204C01002031
:104D90006D340000BD010020BD010020F8B587780A
:104DA00006463846FCF706FA3B06F578044612D567
:104DB000002D43D1FFF776FD034600283ED00122A7
:104DC000A5770274032202739C60FFF7F5FCBDE82F
:104DD000F840FCF791BF4DB1012D2FD1FFF762FDD7
:104DE000034658B3657705740573EDE7FFF75AFD81
:104DF00020B3B278124B12F0800F02F0080111D0EC
:104E000041B1D3F8A836E36001230374022303738E
:104E10008460DAE702F00F02142101FB0233D3F8B9
:104E20000836F0E711B1D3F8A837ECE702F00F022B
:104E3000142101FB0233D3F80837E4E7F8BD00BFC3
:104E400000700240F0B5064689B01422002103A884
:104E500003F000FD3378013B052B21D8DFE803F098
:104E600095031414751603238DF814300024FFF7EE
:104E700019FD0346A0B1047400F10802DDE9050143
:104E800082E8030018461DE00423EDE7B7783846B2
:104E9000FCF790F9837A044623B1013B022B4ED9EB
:104EA00009B0F0BD3B06F57813D5002DF8D1FFF71A
:104EB000F9FC03460028F3D00122A57702740322EF
:104EC00002739C60FFF778FC09B0BDE8F040FCF786
:104ED00013BF55B1012DE3D1FFF7E4FC03460028D1
:104EE000DED0657705740573EBE7FFF7DBFC014661
:104EF0000028D5D002230127077403738460B0789B
:104F0000FDF7D8F9EFF31183202282F31288BFF363
:104F10006F8F0269E26083F31188BFF36F8F1C4AC1
:104F2000E068B2F88C32834283BF1B1AA2F88C323D
:104F3000184BA2F88C5288BFDF640846C2E730469F
:104F400009B0BDE8F040FFF729BF0822002101A801
:104F500003F080FC0F4BD3F88014D3F88424D3F8EB
:104F60008804D3F88C04D3F89004D3F89404D3F8CD
:104F70009804D3F89C34D3B2052B02D111F0600F02
:104F80008ED0054B0593012471E702246FE700BF23
:104F90004C23002000700240B824002070B51D4D45
:104FA00095F82420034672B395F825205AB31B06C2
:104FB0002CD4FCF7FFF8044640B3037A33B34FF028
:104FC000FF3105F1380001F03DFEE368B3B9012679
:104FD00063692677A361637F83B1FFF763FC30B910
:104FE00005F13800FEF754F96FF00B0070BD067440
:104FF00084600673FFF7E0FBFCF77EFE0648FEF7D1
:1050000047F90020F2E76FF01200EFE76FF01500AC
:10501000ECE700BF4C230020842300202DE9F3415E
:1050200050F8283C10F82C6C103304460AD1036960
:1050300050F8205C990741D5D5B95A0715D50023FA
:1050400044F8283C54F8283C10337CD054E90775C8
:1050500054F8148CEFF30583002B65D03B482146B0
:1050600002B0BDE8F041FCF7C5BD43F004030361A5
:1050700054F8248C042701AB2A4641463046FEF7FB
:105080003FF910F10B0F06D1FCF73EFE013FF2D1C4
:105090006FF01503D4E70028FAD1019A54F8243CA4
:1050A000134444F8243C54F8203C9B1A44F8203C18
:1050B00054F81C3C134444F81C3CC3E750F8241C2F
:1050C00001AB2A463046FEF743FA0028E0D1019DA5
:1050D00054F8243C54F8207C2B4444F8243C54F8E5
:1050E0001C3C7F1B2B4444F8207C44F81C3C002DC6
:1050F000A5D0174B93F8243083B13046FCF75AF80B
:1051000078B14368B5FBF3F203FB1255002D96D13D
:10511000002F94D03046FFF741FF93E76FF0120362
:10512000F0E76FF01503EDE744F8183CA4F1100028
:1051300004F0C3F83DB14246394630462B4602B032
:10514000BDE8F041184702B0BDE8F081DC26002040
:105150004C23002080B5B44BB44CB54E01228EB028
:1051600003201A70FBF7B6FC0420FBF7B3FC2546BE
:10517000B54204F12C046BD3EFF31181202383F3A8
:105180001288BFF36F8FAB4DAA68D37B013BD373FB
:1051900081F31188BFF36F8FA44CB44271D3EFF346
:1051A0001184202383F31288BFF36F8FAA68D37B07
:1051B0000133D3730020FBF7C3FC84F31188BFF3E2
:1051C0006F8FFCF7FDFC9C4B9C4AC3F80026C3F88C
:1051D0000426C3F80826C3F80C26C3F81026C3F823
:1051E0001426C3F81826C3F81C26954C602200210B
:1051F000204603F02FFB934B6362002003F500630E
:10520000236504F035F904F12001C0B2FCF74AFC33
:10521000002842D1012004F02BF904F14C01C0B266
:10522000FCF740FC002838D14FF48075626A0A957B
:105230000AA9032004F09FF880B3012384F85830B2
:105240008DF82F3094F85830FF2B40F0E381FEE7C3
:1052500054F80C3C049354F8103C039354F8143C59
:10526000029354F8183C019354F81C3C009354E901
:10527000092354E90B0100F073FE54F82C3CDD6463
:1052800075E7A16A4A1C03D0206819B903F08CFFA6
:105290002C3482E7FDF70AFBFAE7FEE70A9B226D52
:1052A000A3620AA901200A9504F065F8B8B10123A8
:1052B00084F858300021084601F03EFB0028BCD19C
:1052C000626AE36DA56A616D57684FF44076734377
:1052D00030336E1E3844984208D2013EFAE70A9BEA
:1052E000206A636503F0F5FDE065E3E78D4204D0D5
:1052F0004B1C9D4201D0B3429FD1B5F5807F9CD815
:10530000266D0023184602F1040C0436994240F041
:1053100082808D4204D902EBC102536883428CD152
:10532000494B0125CDE90A5306A900230320CDE905
:105330000C3303F0C9FE08A9284603F0C5FE9DF80A
:1053400018209DF82030AA4240F080809DF81A0075
:1053500003287BD1AB4279D0022308A90D93FCF737
:10536000A1FB00287FF469AF089E337803F0FD03AA
:10537000012B7FF462AF3046E56D03F0B1FD5FFABB
:1053800085F940F2FF2303FB09074FF0FF354FF487
:105390004078012306AA3946304603F049FD00282B
:1053A000C24608F1FF38FFF648AF012206A9304691
:1053B00003F0A8FD18B9B5F1FF3F08BF5546A7EBAC
:1053C0000907B8F1000FE4D16B1C07D0FF2D6FDC8B
:1053D000013540F201130A95ADF82C30B168183947
:1053E00021F00701012306AA1039304603F020FD01
:1053F00000287FF422AF012206A9304603F082FD87
:1054000010B101238DF818309DF8183003F00F0308
:105410008DF82F301CE05CF8330056F83370B8423A
:105420007FF40BAF013371E7802E0020B8950000A8
:10543000B89500007C280020000001403546526EDF
:10544000F0110020F00100200101000100230D9364
:105450000AA803F063FB80F001000AA9C0B201F0C2
:105460006BFA00287FF4E9AE0AA803F057FB90BB63
:105470000AA801F01BF99DF82F3084F85830033B3F
:10548000012B05D803F0DCFF10B1FF2384F858305E
:105490009DF82F30023B022B05D803F0BAFF10B164
:1054A000FF2384F8583094F85830FF2B0ED1FEE7D4
:1054B0000223A5F580758DF82D306B1005F00105E0
:1054C000013301350A938DF82C5087E70AA9002093
:1054D00001F032FAB1E69DF82F50012D40F08280A4
:1054E00006A9032003F0F0FD30B1FF238DF82F3023
:1054F000FF2384F85830A5E608A9284603F0E4FD08
:1055000001280BD103238DF820308DF823309DF82E
:1055100018009DF82050984B002110E00028F6D08C
:10552000E3E7171A7A427A4111E0561B7242724140
:1055300017E00131032903F106033FF47EAE1A7828
:10554000042A06D0052AECD1421E18BF0122002AE7
:10555000EFD05A78042A06D0052AE6D16A1E18BF71
:105560000122002AE5D09A78042A03D09DF81B6016
:105570009642DED1DA78042A03D09DF82360964261
:10558000D7D11A79042A03D09DF81A609642D0D157
:105590005D79AB1E022BA8D801200AA901F040FAC0
:1055A000A8B984F858508DF82F500AA801F07EF859
:1055B00094F85830DA1E012A28D803F041FF002859
:1055C00096D103F026FF00283FF43CAE90E7012877
:1055D0003FF433AE052384F858308DF82F3003F0B4
:1055E0002FFFF0E701200AA901F01AFA0028F1D1F3
:1055F0009DF82F3084F85830042B04D8012BD4D8D0
:105600007FF476AF1EE6052BE9D071E7022B7FF41D
:1056100019AED6E70021012B08910CD100210846D4
:1056200001F0FEF9054658B9089B01330893089B21
:10563000012B0BD0FEE7084601F07EF90028EDD0E3
:10564000102200210AA803F005F9FEE7236A0146AB
:1056500010220AA85F6803F0FDF84848484E026827
:1056600006EB02111301D1F80818C9B200297BD149
:1056700005B102604FF080504FF480350269016936
:10568000B5FBF1F24A43A91A74D102694069424359
:10569000AA426FD303F1804202F5F0321346C2F8FA
:1056A00000180221C2F80458C2F80818D2F80058AD
:1056B000002D5FD1D2F80428B2F5803F5AD1D3F83B
:1056C0000838DBB28B4255D12E4EB4F808802E4CF0
:1056D000012373601120FAF71FFE2C4BC6F8083324
:1056E000C6F848332A4B4FF40032C3F8802194F8AF
:1056F000B830002B59D04FF0FF31264801F0A2FA04
:10570000FFF7C2F8244B1B78012B01D9FEF7EEFFFF
:1057100001F0DCF94FF0804320484FF46072C3F889
:105720000823002380F824303830FDF7B1FDFCF762
:10573000C1FAD4F8C430EB40DA075FFA85F92FD408
:10574000D4F8C43005F11002D340DB0705D549F089
:105750008000FEF709FB002827DB0135102DE8D17A
:10576000002384F8B83020E00132072A4FF0010509
:105770007FF676AFFEE700BF339A0000501200209C
:1057800000E0014000100140B027002003000F009E
:1057900000E100E084230020872E00204C2300201D
:1057A0004846FEF7E1FA0028CADA414B4FF0FF34D1
:1057B0004FF00109C3F80490C3F84843C3F8084305
:1057C000C6F8049003F5C833C6F84843C6F8084342
:1057D000384EC3F804900025C3F848430220C3F8AC
:1057E0000843C6F80843FAF797FDC6F80490C6F8D0
:1057F0004C51D6F84C31C6F81051D6F81031C6F8D5
:105800004451D6F84431C6F8005506F5183628201C
:10581000C6F80843FAF780FDC6F80490C6F84C5164
:10582000D6F84C31C6F81051D6F81031C6F84451AC
:10583000D6F84431204BC6F80055C3F808454FF060
:105840008043C3F80843BFF36F8F72B61B4BC3F896
:105850008040C3F88440C3F88840C3F88C40C3F844
:105860009040C3F89440C3F89840C3F89C40C3F8F4
:105870008041C3F88441C3F88841C3F88C41C3F820
:105880009041C3F89441C3F89841C3F89C41FAF79A
:1058900023FD07EB080457F8083083F3088885F3E5
:1058A0001488BFF36F8FBFF36F8F63689847FEE76D
:1058B00000B000400020004000F0014000E100E0A6
:1058C0002DE9FF47A74CDFF8A0A28146002001F098
:1058D00027FA064610B904B0BDE8F08794F82530E1
:1058E000327C3BB9002A00F08C8071689E4803F03E
:1058F0000DFDEBE7042A4BD8DFE812F0830005002A
:10590000D501E9010402337BB568032B40D8DFE8F9
:1059100003F002466166D5F81480944F08220021F6
:10592000404602F097FFD7F8803488F80030D7F867
:10593000843488F80130D7F88834D7F88C248C4820
:1059400043EA0223A8F80230D7F89034D7F8942419
:1059500043EA0223A8F80430D7F89834D7F89C24F7
:1059600043EA02230822A8F806304146EA6003F021
:105970002BFB2B68687A0021984798F90030002BA0
:1059800009DBB8F8063033B1A4F88C320123FB648C
:1059900071685046ABE70023A4F88C32F8E76B7FC0
:1059A000002BF5D02B7F002BF2D000276F774FF024
:1059B000FF312F776F4801F045F96B6901936B68F0
:1059C000687A01A9CDE9023700F0B2FB6948FDF71A
:1059D0005FFCDDE72B680121687A9847D8E7AB7A4E
:1059E00063B9EB7F53B963484FF0FF3101F02AF9F7
:1059F0005E4B604801221A65FDF74AFC2B680221C4
:105A0000EAE7327A042AC3D8DFE812F0030105007E
:105A1000C40011014201584D2B78012BB8D8534BCB
:105A20004FF40062C3F80024FAF7B6FC08B1FAF7A5
:105A3000D3FC02F027FFC8B1EFF31180202383F3DA
:105A40001288BFF36F8F4D4BD3F8001CC022002982
:105A500040F0818049F27531C3F8001CC3F8142C62
:105A6000C3F8001C80F31188BFF36F8F3F4B0122F6
:105A7000C3F80025D3F800241705FBD54FF40062C6
:105A8000C3F8002402F0FEFEB8B1EFF3118020232A
:105A900083F31288BFF36F8F384BD3F8001C0029B3
:105AA0005CD149F27532C3F8002CC3F8141CC3F85A
:105AB000002C80F31188BFF36F8FFAF76DFC30B1C3
:105AC000FAF7A8FCFAF768FC08B1FAF785FC02F0CF
:105AD000D9FE264B50B140F2E372C3F800284022B1
